{
  "contractName": "Land",
  "abi": [
    {
      "inputs": [],
      "payable": false,
      "stateMutability": "nonpayable",
      "type": "constructor"
    },
    {
      "anonymous": false,
      "inputs": [
        {
          "indexed": true,
          "internalType": "uint256",
          "name": "_landId",
          "type": "uint256"
        }
      ],
      "name": "AddingRfp",
      "type": "event"
    },
    {
      "anonymous": false,
      "inputs": [
        {
          "indexed": false,
          "internalType": "address",
          "name": "_registrationId",
          "type": "address"
        }
      ],
      "name": "Registration",
      "type": "event"
    },
    {
      "anonymous": false,
      "inputs": [
        {
          "indexed": false,
          "internalType": "address",
          "name": "_id",
          "type": "address"
        }
      ],
      "name": "Rejected",
      "type": "event"
    },
    {
      "anonymous": false,
      "inputs": [
        {
          "indexed": false,
          "internalType": "address",
          "name": "_sellerId",
          "type": "address"
        }
      ],
      "name": "Rfprequested",
      "type": "event"
    },
    {
      "anonymous": false,
      "inputs": [
        {
          "indexed": false,
          "internalType": "address",
          "name": "_id",
          "type": "address"
        }
      ],
      "name": "Verified",
      "type": "event"
    },
    {
      "anonymous": false,
      "inputs": [
        {
          "indexed": false,
          "internalType": "address",
          "name": "_buyerId",
          "type": "address"
        }
      ],
      "name": "requestApproved",
      "type": "event"
    },
    {
      "constant": true,
      "inputs": [
        {
          "internalType": "uint256",
          "name": "",
          "type": "uint256"
        }
      ],
      "name": "AdminMapping",
      "outputs": [
        {
          "internalType": "uint256",
          "name": "id",
          "type": "uint256"
        },
        {
          "internalType": "string",
          "name": "name",
          "type": "string"
        },
        {
          "internalType": "uint256",
          "name": "age",
          "type": "uint256"
        },
        {
          "internalType": "string",
          "name": "designation",
          "type": "string"
        }
      ],
      "payable": false,
      "stateMutability": "view",
      "type": "function"
    },
    {
      "constant": true,
      "inputs": [
        {
          "internalType": "address",
          "name": "",
          "type": "address"
        }
      ],
      "name": "AgencyMapping",
      "outputs": [
        {
          "internalType": "address",
          "name": "id",
          "type": "address"
        },
        {
          "internalType": "string",
          "name": "name",
          "type": "string"
        },
        {
          "internalType": "uint256",
          "name": "age",
          "type": "uint256"
        },
        {
          "internalType": "string",
          "name": "city",
          "type": "string"
        },
        {
          "internalType": "string",
          "name": "aadharNumber",
          "type": "string"
        },
        {
          "internalType": "string",
          "name": "panNumber",
          "type": "string"
        },
        {
          "internalType": "string",
          "name": "document",
          "type": "string"
        },
        {
          "internalType": "string",
          "name": "email",
          "type": "string"
        }
      ],
      "payable": false,
      "stateMutability": "view",
      "type": "function"
    },
    {
      "constant": true,
      "inputs": [
        {
          "internalType": "address",
          "name": "",
          "type": "address"
        }
      ],
      "name": "AgencyRejection",
      "outputs": [
        {
          "internalType": "bool",
          "name": "",
          "type": "bool"
        }
      ],
      "payable": false,
      "stateMutability": "view",
      "type": "function"
    },
    {
      "constant": true,
      "inputs": [
        {
          "internalType": "address",
          "name": "",
          "type": "address"
        }
      ],
      "name": "AgencyVerification",
      "outputs": [
        {
          "internalType": "bool",
          "name": "",
          "type": "bool"
        }
      ],
      "payable": false,
      "stateMutability": "view",
      "type": "function"
    },
    {
      "constant": true,
      "inputs": [
        {
          "internalType": "uint256",
          "name": "",
          "type": "uint256"
        }
      ],
      "name": "BidsMapping",
      "outputs": [
        {
          "internalType": "uint256",
          "name": "reqId",
          "type": "uint256"
        },
        {
          "internalType": "address",
          "name": "shqqId",
          "type": "address"
        },
        {
          "internalType": "address",
          "name": "agencyyId",
          "type": "address"
        },
        {
          "internalType": "uint256",
          "name": "rfpssId",
          "type": "uint256"
        }
      ],
      "payable": false,
      "stateMutability": "view",
      "type": "function"
    },
    {
      "constant": true,
      "inputs": [
        {
          "internalType": "uint256",
          "name": "",
          "type": "uint256"
        }
      ],
      "name": "PaymentReceived",
      "outputs": [
        {
          "internalType": "bool",
          "name": "",
          "type": "bool"
        }
      ],
      "payable": false,
      "stateMutability": "view",
      "type": "function"
    },
    {
      "constant": true,
      "inputs": [
        {
          "internalType": "address",
          "name": "",
          "type": "address"
        }
      ],
      "name": "RegisteredAddressMapping",
      "outputs": [
        {
          "internalType": "bool",
          "name": "",
          "type": "bool"
        }
      ],
      "payable": false,
      "stateMutability": "view",
      "type": "function"
    },
    {
      "constant": true,
      "inputs": [
        {
          "internalType": "address",
          "name": "",
          "type": "address"
        }
      ],
      "name": "RegisteredAgencyMapping",
      "outputs": [
        {
          "internalType": "bool",
          "name": "",
          "type": "bool"
        }
      ],
      "payable": false,
      "stateMutability": "view",
      "type": "function"
    },
    {
      "constant": true,
      "inputs": [
        {
          "internalType": "address",
          "name": "",
          "type": "address"
        }
      ],
      "name": "RegisteredShqMapping",
      "outputs": [
        {
          "internalType": "bool",
          "name": "",
          "type": "bool"
        }
      ],
      "payable": false,
      "stateMutability": "view",
      "type": "function"
    },
    {
      "constant": true,
      "inputs": [
        {
          "internalType": "uint256",
          "name": "",
          "type": "uint256"
        }
      ],
      "name": "RequestStatus",
      "outputs": [
        {
          "internalType": "bool",
          "name": "",
          "type": "bool"
        }
      ],
      "payable": false,
      "stateMutability": "view",
      "type": "function"
    },
    {
      "constant": true,
      "inputs": [
        {
          "internalType": "uint256",
          "name": "",
          "type": "uint256"
        }
      ],
      "name": "RequestedRfp",
      "outputs": [
        {
          "internalType": "bool",
          "name": "",
          "type": "bool"
        }
      ],
      "payable": false,
      "stateMutability": "view",
      "type": "function"
    },
    {
      "constant": true,
      "inputs": [],
      "name": "RfpAdmin",
      "outputs": [
        {
          "internalType": "address",
          "name": "",
          "type": "address"
        }
      ],
      "payable": false,
      "stateMutability": "view",
      "type": "function"
    },
    {
      "constant": true,
      "inputs": [
        {
          "internalType": "uint256",
          "name": "",
          "type": "uint256"
        }
      ],
      "name": "RfpOwner",
      "outputs": [
        {
          "internalType": "address",
          "name": "",
          "type": "address"
        }
      ],
      "payable": false,
      "stateMutability": "view",
      "type": "function"
    },
    {
      "constant": true,
      "inputs": [
        {
          "internalType": "uint256",
          "name": "",
          "type": "uint256"
        }
      ],
      "name": "RfpVerification",
      "outputs": [
        {
          "internalType": "bool",
          "name": "",
          "type": "bool"
        }
      ],
      "payable": false,
      "stateMutability": "view",
      "type": "function"
    },
    {
      "constant": true,
      "inputs": [
        {
          "internalType": "address",
          "name": "",
          "type": "address"
        }
      ],
      "name": "ShqMapping",
      "outputs": [
        {
          "internalType": "address",
          "name": "id",
          "type": "address"
        },
        {
          "internalType": "string",
          "name": "name",
          "type": "string"
        },
        {
          "internalType": "uint256",
          "name": "age",
          "type": "uint256"
        },
        {
          "internalType": "string",
          "name": "aadharNumber",
          "type": "string"
        },
        {
          "internalType": "string",
          "name": "panNumber",
          "type": "string"
        },
        {
          "internalType": "string",
          "name": "rfpssOwned",
          "type": "string"
        },
        {
          "internalType": "string",
          "name": "document",
          "type": "string"
        }
      ],
      "payable": false,
      "stateMutability": "view",
      "type": "function"
    },
    {
      "constant": true,
      "inputs": [
        {
          "internalType": "address",
          "name": "",
          "type": "address"
        }
      ],
      "name": "ShqRejection",
      "outputs": [
        {
          "internalType": "bool",
          "name": "",
          "type": "bool"
        }
      ],
      "payable": false,
      "stateMutability": "view",
      "type": "function"
    },
    {
      "constant": true,
      "inputs": [
        {
          "internalType": "address",
          "name": "",
          "type": "address"
        }
      ],
      "name": "ShqVerification",
      "outputs": [
        {
          "internalType": "bool",
          "name": "",
          "type": "bool"
        }
      ],
      "payable": false,
      "stateMutability": "view",
      "type": "function"
    },
    {
      "constant": true,
      "inputs": [],
      "name": "adminCount",
      "outputs": [
        {
          "internalType": "uint256",
          "name": "",
          "type": "uint256"
        }
      ],
      "payable": false,
      "stateMutability": "view",
      "type": "function"
    },
    {
      "constant": true,
      "inputs": [],
      "name": "agencyCount",
      "outputs": [
        {
          "internalType": "uint256",
          "name": "",
          "type": "uint256"
        }
      ],
      "payable": false,
      "stateMutability": "view",
      "type": "function"
    },
    {
      "constant": true,
      "inputs": [
        {
          "internalType": "uint256",
          "name": "",
          "type": "uint256"
        }
      ],
      "name": "agencyList",
      "outputs": [
        {
          "internalType": "address",
          "name": "",
          "type": "address"
        }
      ],
      "payable": false,
      "stateMutability": "view",
      "type": "function"
    },
    {
      "constant": true,
      "inputs": [],
      "name": "requestsCount",
      "outputs": [
        {
          "internalType": "uint256",
          "name": "",
          "type": "uint256"
        }
      ],
      "payable": false,
      "stateMutability": "view",
      "type": "function"
    },
    {
      "constant": true,
      "inputs": [],
      "name": "rfpCount",
      "outputs": [
        {
          "internalType": "uint256",
          "name": "",
          "type": "uint256"
        }
      ],
      "payable": false,
      "stateMutability": "view",
      "type": "function"
    },
    {
      "constant": true,
      "inputs": [
        {
          "internalType": "uint256",
          "name": "",
          "type": "uint256"
        }
      ],
      "name": "rfps",
      "outputs": [
        {
          "internalType": "uint256",
          "name": "id",
          "type": "uint256"
        },
        {
          "internalType": "uint256",
          "name": "area",
          "type": "uint256"
        },
        {
          "internalType": "string",
          "name": "city",
          "type": "string"
        },
        {
          "internalType": "string",
          "name": "state",
          "type": "string"
        },
        {
          "internalType": "uint256",
          "name": "rfpPrice",
          "type": "uint256"
        },
        {
          "internalType": "uint256",
          "name": "rfpssId",
          "type": "uint256"
        },
        {
          "internalType": "uint256",
          "name": "physicalSurveyNumber",
          "type": "uint256"
        },
        {
          "internalType": "string",
          "name": "ipfsHash",
          "type": "string"
        },
        {
          "internalType": "string",
          "name": "document",
          "type": "string"
        }
      ],
      "payable": false,
      "stateMutability": "view",
      "type": "function"
    },
    {
      "constant": true,
      "inputs": [],
      "name": "shqCount",
      "outputs": [
        {
          "internalType": "uint256",
          "name": "",
          "type": "uint256"
        }
      ],
      "payable": false,
      "stateMutability": "view",
      "type": "function"
    },
    {
      "constant": true,
      "inputs": [
        {
          "internalType": "uint256",
          "name": "",
          "type": "uint256"
        }
      ],
      "name": "shqList",
      "outputs": [
        {
          "internalType": "address",
          "name": "",
          "type": "address"
        }
      ],
      "payable": false,
      "stateMutability": "view",
      "type": "function"
    },
    {
      "constant": true,
      "inputs": [],
      "name": "getRfpCount",
      "outputs": [
        {
          "internalType": "uint256",
          "name": "",
          "type": "uint256"
        }
      ],
      "payable": false,
      "stateMutability": "view",
      "type": "function"
    },
    {
      "constant": true,
      "inputs": [],
      "name": "getAgencyCount",
      "outputs": [
        {
          "internalType": "uint256",
          "name": "",
          "type": "uint256"
        }
      ],
      "payable": false,
      "stateMutability": "view",
      "type": "function"
    },
    {
      "constant": true,
      "inputs": [],
      "name": "getShqCount",
      "outputs": [
        {
          "internalType": "uint256",
          "name": "",
          "type": "uint256"
        }
      ],
      "payable": false,
      "stateMutability": "view",
      "type": "function"
    },
    {
      "constant": true,
      "inputs": [],
      "name": "getBidCount",
      "outputs": [
        {
          "internalType": "uint256",
          "name": "",
          "type": "uint256"
        }
      ],
      "payable": false,
      "stateMutability": "view",
      "type": "function"
    },
    {
      "constant": true,
      "inputs": [
        {
          "internalType": "uint256",
          "name": "i",
          "type": "uint256"
        }
      ],
      "name": "getArea",
      "outputs": [
        {
          "internalType": "uint256",
          "name": "",
          "type": "uint256"
        }
      ],
      "payable": false,
      "stateMutability": "view",
      "type": "function"
    },
    {
      "constant": true,
      "inputs": [
        {
          "internalType": "uint256",
          "name": "i",
          "type": "uint256"
        }
      ],
      "name": "getCity",
      "outputs": [
        {
          "internalType": "string",
          "name": "",
          "type": "string"
        }
      ],
      "payable": false,
      "stateMutability": "view",
      "type": "function"
    },
    {
      "constant": true,
      "inputs": [
        {
          "internalType": "uint256",
          "name": "i",
          "type": "uint256"
        }
      ],
      "name": "getState",
      "outputs": [
        {
          "internalType": "string",
          "name": "",
          "type": "string"
        }
      ],
      "payable": false,
      "stateMutability": "view",
      "type": "function"
    },
    {
      "constant": true,
      "inputs": [
        {
          "internalType": "uint256",
          "name": "i",
          "type": "uint256"
        }
      ],
      "name": "getPrice",
      "outputs": [
        {
          "internalType": "uint256",
          "name": "",
          "type": "uint256"
        }
      ],
      "payable": false,
      "stateMutability": "view",
      "type": "function"
    },
    {
      "constant": true,
      "inputs": [
        {
          "internalType": "uint256",
          "name": "i",
          "type": "uint256"
        }
      ],
      "name": "getPID",
      "outputs": [
        {
          "internalType": "uint256",
          "name": "",
          "type": "uint256"
        }
      ],
      "payable": false,
      "stateMutability": "view",
      "type": "function"
    },
    {
      "constant": true,
      "inputs": [
        {
          "internalType": "uint256",
          "name": "i",
          "type": "uint256"
        }
      ],
      "name": "getSurveyNumber",
      "outputs": [
        {
          "internalType": "uint256",
          "name": "",
          "type": "uint256"
        }
      ],
      "payable": false,
      "stateMutability": "view",
      "type": "function"
    },
    {
      "constant": true,
      "inputs": [
        {
          "internalType": "uint256",
          "name": "i",
          "type": "uint256"
        }
      ],
      "name": "getImage",
      "outputs": [
        {
          "internalType": "string",
          "name": "",
          "type": "string"
        }
      ],
      "payable": false,
      "stateMutability": "view",
      "type": "function"
    },
    {
      "constant": true,
      "inputs": [
        {
          "internalType": "uint256",
          "name": "i",
          "type": "uint256"
        }
      ],
      "name": "getDocument",
      "outputs": [
        {
          "internalType": "string",
          "name": "",
          "type": "string"
        }
      ],
      "payable": false,
      "stateMutability": "view",
      "type": "function"
    },
    {
      "constant": true,
      "inputs": [
        {
          "internalType": "uint256",
          "name": "id",
          "type": "uint256"
        }
      ],
      "name": "getLandOwner",
      "outputs": [
        {
          "internalType": "address",
          "name": "",
          "type": "address"
        }
      ],
      "payable": false,
      "stateMutability": "view",
      "type": "function"
    },
    {
      "constant": false,
      "inputs": [
        {
          "internalType": "address",
          "name": "_sellerId",
          "type": "address"
        }
      ],
      "name": "verifyShq",
      "outputs": [],
      "payable": false,
      "stateMutability": "nonpayable",
      "type": "function"
    },
    {
      "constant": false,
      "inputs": [
        {
          "internalType": "address",
          "name": "_sellerId",
          "type": "address"
        }
      ],
      "name": "rejectShq",
      "outputs": [],
      "payable": false,
      "stateMutability": "nonpayable",
      "type": "function"
    },
    {
      "constant": false,
      "inputs": [
        {
          "internalType": "address",
          "name": "_buyerId",
          "type": "address"
        }
      ],
      "name": "verifyAgency",
      "outputs": [],
      "payable": false,
      "stateMutability": "nonpayable",
      "type": "function"
    },
    {
      "constant": false,
      "inputs": [
        {
          "internalType": "address",
          "name": "_buyerId",
          "type": "address"
        }
      ],
      "name": "rejectAgency",
      "outputs": [],
      "payable": false,
      "stateMutability": "nonpayable",
      "type": "function"
    },
    {
      "constant": false,
      "inputs": [
        {
          "internalType": "uint256",
          "name": "_landId",
          "type": "uint256"
        }
      ],
      "name": "verifyRfp",
      "outputs": [],
      "payable": false,
      "stateMutability": "nonpayable",
      "type": "function"
    },
    {
      "constant": true,
      "inputs": [
        {
          "internalType": "uint256",
          "name": "_id",
          "type": "uint256"
        }
      ],
      "name": "isRfpVerified",
      "outputs": [
        {
          "internalType": "bool",
          "name": "",
          "type": "bool"
        }
      ],
      "payable": false,
      "stateMutability": "view",
      "type": "function"
    },
    {
      "constant": true,
      "inputs": [
        {
          "internalType": "address",
          "name": "_id",
          "type": "address"
        }
      ],
      "name": "isVerified",
      "outputs": [
        {
          "internalType": "bool",
          "name": "",
          "type": "bool"
        }
      ],
      "payable": false,
      "stateMutability": "view",
      "type": "function"
    },
    {
      "constant": true,
      "inputs": [
        {
          "internalType": "address",
          "name": "_id",
          "type": "address"
        }
      ],
      "name": "isRejected",
      "outputs": [
        {
          "internalType": "bool",
          "name": "",
          "type": "bool"
        }
      ],
      "payable": false,
      "stateMutability": "view",
      "type": "function"
    },
    {
      "constant": true,
      "inputs": [
        {
          "internalType": "address",
          "name": "_id",
          "type": "address"
        }
      ],
      "name": "isAgency",
      "outputs": [
        {
          "internalType": "bool",
          "name": "",
          "type": "bool"
        }
      ],
      "payable": false,
      "stateMutability": "view",
      "type": "function"
    },
    {
      "constant": true,
      "inputs": [
        {
          "internalType": "address",
          "name": "_id",
          "type": "address"
        }
      ],
      "name": "isAdmin",
      "outputs": [
        {
          "internalType": "bool",
          "name": "",
          "type": "bool"
        }
      ],
      "payable": false,
      "stateMutability": "view",
      "type": "function"
    },
    {
      "constant": true,
      "inputs": [
        {
          "internalType": "address",
          "name": "_id",
          "type": "address"
        }
      ],
      "name": "isShq",
      "outputs": [
        {
          "internalType": "bool",
          "name": "",
          "type": "bool"
        }
      ],
      "payable": false,
      "stateMutability": "view",
      "type": "function"
    },
    {
      "constant": true,
      "inputs": [
        {
          "internalType": "address",
          "name": "_id",
          "type": "address"
        }
      ],
      "name": "isRegistered",
      "outputs": [
        {
          "internalType": "bool",
          "name": "",
          "type": "bool"
        }
      ],
      "payable": false,
      "stateMutability": "view",
      "type": "function"
    },
    {
      "constant": false,
      "inputs": [
        {
          "internalType": "uint256",
          "name": "_area",
          "type": "uint256"
        },
        {
          "internalType": "string",
          "name": "_city",
          "type": "string"
        },
        {
          "internalType": "string",
          "name": "_state",
          "type": "string"
        },
        {
          "internalType": "uint256",
          "name": "rfpPrice",
          "type": "uint256"
        },
        {
          "internalType": "uint256",
          "name": "_propertyPID",
          "type": "uint256"
        },
        {
          "internalType": "uint256",
          "name": "_surveyNum",
          "type": "uint256"
        },
        {
          "internalType": "string",
          "name": "_ipfsHash",
          "type": "string"
        },
        {
          "internalType": "string",
          "name": "_document",
          "type": "string"
        }
      ],
      "name": "addRfp",
      "outputs": [],
      "payable": false,
      "stateMutability": "nonpayable",
      "type": "function"
    },
    {
      "constant": false,
      "inputs": [
        {
          "internalType": "string",
          "name": "_name",
          "type": "string"
        },
        {
          "internalType": "uint256",
          "name": "_age",
          "type": "uint256"
        },
        {
          "internalType": "string",
          "name": "_aadharNumber",
          "type": "string"
        },
        {
          "internalType": "string",
          "name": "_panNumber",
          "type": "string"
        },
        {
          "internalType": "string",
          "name": "_landsOwned",
          "type": "string"
        },
        {
          "internalType": "string",
          "name": "_document",
          "type": "string"
        }
      ],
      "name": "registerShq",
      "outputs": [],
      "payable": false,
      "stateMutability": "nonpayable",
      "type": "function"
    },
    {
      "constant": false,
      "inputs": [
        {
          "internalType": "string",
          "name": "_name",
          "type": "string"
        },
        {
          "internalType": "uint256",
          "name": "_age",
          "type": "uint256"
        },
        {
          "internalType": "string",
          "name": "_aadharNumber",
          "type": "string"
        },
        {
          "internalType": "string",
          "name": "_panNumber",
          "type": "string"
        },
        {
          "internalType": "string",
          "name": "_landsOwned",
          "type": "string"
        }
      ],
      "name": "updateShq",
      "outputs": [],
      "payable": false,
      "stateMutability": "nonpayable",
      "type": "function"
    },
    {
      "constant": true,
      "inputs": [],
      "name": "getShq",
      "outputs": [
        {
          "internalType": "address[]",
          "name": "",
          "type": "address[]"
        }
      ],
      "payable": false,
      "stateMutability": "view",
      "type": "function"
    },
    {
      "constant": true,
      "inputs": [
        {
          "internalType": "address",
          "name": "i",
          "type": "address"
        }
      ],
      "name": "getShqDetails",
      "outputs": [
        {
          "internalType": "string",
          "name": "",
          "type": "string"
        },
        {
          "internalType": "uint256",
          "name": "",
          "type": "uint256"
        },
        {
          "internalType": "string",
          "name": "",
          "type": "string"
        },
        {
          "internalType": "string",
          "name": "",
          "type": "string"
        },
        {
          "internalType": "string",
          "name": "",
          "type": "string"
        },
        {
          "internalType": "string",
          "name": "",
          "type": "string"
        }
      ],
      "payable": false,
      "stateMutability": "view",
      "type": "function"
    },
    {
      "constant": false,
      "inputs": [
        {
          "internalType": "string",
          "name": "_name",
          "type": "string"
        },
        {
          "internalType": "uint256",
          "name": "_age",
          "type": "uint256"
        },
        {
          "internalType": "string",
          "name": "_city",
          "type": "string"
        },
        {
          "internalType": "string",
          "name": "_aadharNumber",
          "type": "string"
        },
        {
          "internalType": "string",
          "name": "_panNumber",
          "type": "string"
        },
        {
          "internalType": "string",
          "name": "_document",
          "type": "string"
        },
        {
          "internalType": "string",
          "name": "_email",
          "type": "string"
        }
      ],
      "name": "registerAgency",
      "outputs": [],
      "payable": false,
      "stateMutability": "nonpayable",
      "type": "function"
    },
    {
      "constant": false,
      "inputs": [
        {
          "internalType": "string",
          "name": "_name",
          "type": "string"
        },
        {
          "internalType": "uint256",
          "name": "_age",
          "type": "uint256"
        },
        {
          "internalType": "string",
          "name": "_city",
          "type": "string"
        },
        {
          "internalType": "string",
          "name": "_aadharNumber",
          "type": "string"
        },
        {
          "internalType": "string",
          "name": "_email",
          "type": "string"
        },
        {
          "internalType": "string",
          "name": "_panNumber",
          "type": "string"
        }
      ],
      "name": "updateAgency",
      "outputs": [],
      "payable": false,
      "stateMutability": "nonpayable",
      "type": "function"
    },
    {
      "constant": true,
      "inputs": [],
      "name": "getAgency",
      "outputs": [
        {
          "internalType": "address[]",
          "name": "",
          "type": "address[]"
        }
      ],
      "payable": false,
      "stateMutability": "view",
      "type": "function"
    },
    {
      "constant": true,
      "inputs": [
        {
          "internalType": "address",
          "name": "i",
          "type": "address"
        }
      ],
      "name": "getAgencyDetails",
      "outputs": [
        {
          "internalType": "string",
          "name": "",
          "type": "string"
        },
        {
          "internalType": "string",
          "name": "",
          "type": "string"
        },
        {
          "internalType": "string",
          "name": "",
          "type": "string"
        },
        {
          "internalType": "string",
          "name": "",
          "type": "string"
        },
        {
          "internalType": "string",
          "name": "",
          "type": "string"
        },
        {
          "internalType": "uint256",
          "name": "",
          "type": "uint256"
        },
        {
          "internalType": "string",
          "name": "",
          "type": "string"
        }
      ],
      "payable": false,
      "stateMutability": "view",
      "type": "function"
    },
    {
      "constant": false,
      "inputs": [
        {
          "internalType": "address",
          "name": "_sellerId",
          "type": "address"
        },
        {
          "internalType": "uint256",
          "name": "_landId",
          "type": "uint256"
        }
      ],
      "name": "requestBid",
      "outputs": [],
      "payable": false,
      "stateMutability": "nonpayable",
      "type": "function"
    },
    {
      "constant": true,
      "inputs": [
        {
          "internalType": "uint256",
          "name": "i",
          "type": "uint256"
        }
      ],
      "name": "getBidDetails",
      "outputs": [
        {
          "internalType": "address",
          "name": "",
          "type": "address"
        },
        {
          "internalType": "address",
          "name": "",
          "type": "address"
        },
        {
          "internalType": "uint256",
          "name": "",
          "type": "uint256"
        },
        {
          "internalType": "bool",
          "name": "",
          "type": "bool"
        }
      ],
      "payable": false,
      "stateMutability": "view",
      "type": "function"
    },
    {
      "constant": true,
      "inputs": [
        {
          "internalType": "uint256",
          "name": "_id",
          "type": "uint256"
        }
      ],
      "name": "isRequested",
      "outputs": [
        {
          "internalType": "bool",
          "name": "",
          "type": "bool"
        }
      ],
      "payable": false,
      "stateMutability": "view",
      "type": "function"
    },
    {
      "constant": true,
      "inputs": [
        {
          "internalType": "uint256",
          "name": "_id",
          "type": "uint256"
        }
      ],
      "name": "isApproved",
      "outputs": [
        {
          "internalType": "bool",
          "name": "",
          "type": "bool"
        }
      ],
      "payable": false,
      "stateMutability": "view",
      "type": "function"
    },
    {
      "constant": false,
      "inputs": [
        {
          "internalType": "uint256",
          "name": "_reqId",
          "type": "uint256"
        }
      ],
      "name": "approveRequest",
      "outputs": [],
      "payable": false,
      "stateMutability": "nonpayable",
      "type": "function"
    },
    {
      "constant": false,
      "inputs": [
        {
          "internalType": "uint256",
          "name": "_landId",
          "type": "uint256"
        },
        {
          "internalType": "address",
          "name": "_newOwner",
          "type": "address"
        }
      ],
      "name": "RfpOwnershipTransfer",
      "outputs": [],
      "payable": false,
      "stateMutability": "nonpayable",
      "type": "function"
    },
    {
      "constant": true,
      "inputs": [
        {
          "internalType": "uint256",
          "name": "_landId",
          "type": "uint256"
        }
      ],
      "name": "isPaid",
      "outputs": [
        {
          "internalType": "bool",
          "name": "",
          "type": "bool"
        }
      ],
      "payable": false,
      "stateMutability": "view",
      "type": "function"
    },
    {
      "constant": false,
      "inputs": [
        {
          "internalType": "address payable",
          "name": "_receiver",
          "type": "address"
        },
        {
          "internalType": "uint256",
          "name": "_landId",
          "type": "uint256"
        }
      ],
      "name": "payment",
      "outputs": [],
      "payable": true,
      "stateMutability": "payable",
      "type": "function"
    }
  ],
  "bytecode": "0x60806040523480156200001157600080fd5b5060118054600160a060020a03191633179055604080518082018252600b81527f496e73706563746f7220310000000000000000000000000000000000000000006020808301919091528251808401909352600e83527f54656873696c204d616e6167657200000000000000000000000000000000000090830152620000a391602d90640100000000620000a9810204565b620001d7565b601580546001908101918290556040805160808101825283815260208082018881528284018890526060830187905260009586528482529290942081518155915180519194929362000102939085019291019062000132565b5060408201516002820155606082015180516200012a91600384019160209091019062000132565b505050505050565b828054600181600116156101000203166002900490600052602060002090601f016020900481019282601f106200017557805160ff1916838001178555620001a5565b82800160010185558215620001a5579182015b82811115620001a557825182559160200191906001019062000188565b50620001b3929150620001b7565b5090565b620001d491905b80821115620001b35760008155600101620001be565b90565b613b3a80620001e76000396000f3fe608060405260043610610431576000357c01000000000000000000000000000000000000000000000000000000009004806378012ff711610245578063c5ce063411610145578063e597675c116100d8578063ee9a888a116100a7578063fbfa4b7f1161008c578063fbfa4b7f14610c98578063ff3b47bf14610cad578063ffcaf1b514610cc257610431565b8063ee9a888a14610c48578063f58f85b514610c7857610431565b8063e597675c14610ba4578063e684653914610bd4578063e757223014610c08578063e87688d314610c2857610431565b8063d7d1bbdb11610114578063d7d1bbdb14610b2f578063de46d4e614610b4f578063dea8a59114610b6f578063e3a122d814610b8457610431565b8063c5ce063414610aba578063cd392a8314610ada578063d34e949614610afa578063d713065114610b0f57610431565b8063a0958f6c116101d8578063b4f35b9a116101a7578063bbf889a51161018c578063bbf889a514610a4a578063bc6f4a5714610a6a578063c3c5a54714610a9a57610431565b8063b4f35b9a14610a08578063b9209e3314610a2a57610431565b8063a0958f6c14610980578063a4a0f6c0146109a0578063aa8f370e146109c0578063ab81a716146109f357610431565b80638ae7becc116102145780638ae7becc14610900578063969077b714610920578063990a30b8146109405780639ce169e41461096057610431565b806378012ff71461088b5780637910867b146108ab5780638624c3ac146108cb57806389d21354146108e057610431565b80632c8361e51161035057806354817fa7116102e35780636589dcdf116102b257806369dd9a0d1161029757806369dd9a0d1461082b5780636e5c52961461084b57806377f72c121461086b57610431565b80636589dcdf146107f857806367a09c231461081857610431565b806354817fa714610778578063552e7389146107985780636490c7a8146107b8578063657acc31146107d857610431565b80633fddee641161031f5780633fddee64146106e657806344c9af281461070657806348a46bd3146107265780634b7719e01461074657610431565b80632c8361e514610671578063317102e1146106865780633e28923f146106a65780633f9b250a146106c657610431565b806322887f4b116103c857806328f6a48a1161039757806328f6a48a146106125780632a82ea80146106275780632b7832b31461063c5780632bc8ca9d1461065157610431565b806322887f4b1461057057806324d7806c1461059257806325241d41146105b25780632607aafa146105e557610431565b80631365b58e116104045780631365b58e146104e3578063155fec72146105105780631869a38b146105305780631a07f76e1461055057610431565b806307d56ac0146104365780630923e95f1461046c5780630942f6ad146104a15780630a453fe2146104b6575b600080fd5b34801561044257600080fd5b506104566104513660046133ef565b610ce2565b60405161046391906138d3565b60405180910390f35b34801561047857600080fd5b5061048c6104873660046133ef565b610cfa565b60405161046399989796959493929190613961565b3480156104ad57600080fd5b50610456610f67565b3480156104c257600080fd5b506104d66104d13660046133ef565b610f6d565b604051610463919061361c565b3480156104ef57600080fd5b506105036104fe3660046133ef565b610f94565b60405161046391906137b8565b34801561051c57600080fd5b5061050361052b3660046133ef565b610fb3565b34801561053c57600080fd5b506104d661054b3660046133ef565b610fd2565b34801561055c57600080fd5b5061050361056b3660046133ef565b610fed565b34801561057c57600080fd5b5061059061058b3660046131c6565b611002565b005b34801561059e57600080fd5b506105036105ad366004613092565b611112565b3480156105be57600080fd5b506105d26105cd366004613092565b61113b565b6040516104639796959493929190613676565b3480156105f157600080fd5b506106056106003660046133ef565b611434565b60405161046391906137c6565b34801561061e57600080fd5b506104566114d6565b34801561063357600080fd5b506104d66114dd565b34801561064857600080fd5b506104566114ec565b34801561065d57600080fd5b5061050361066c366004613092565b6114f2565b34801561067d57600080fd5b50610456611507565b34801561069257600080fd5b506105036106a1366004613092565b61150d565b3480156106b257600080fd5b506105906106c13660046133ef565b611522565b3480156106d257600080fd5b506106056106e13660046133ef565b61154f565b3480156106f257600080fd5b50610503610701366004613092565b6115ba565b34801561071257600080fd5b506106056107213660046133ef565b6115e3565b34801561073257600080fd5b50610503610741366004613092565b61164e565b34801561075257600080fd5b50610766610761366004613092565b61169a565b60405161046396959493929190613859565b34801561078457600080fd5b50610503610793366004613092565b6119b0565b3480156107a457600080fd5b506105906107b3366004613092565b6119c5565b3480156107c457600080fd5b506104566107d33660046133ef565b611a35565b3480156107e457600080fd5b506105906107f336600461343d565b611a4a565b34801561080457600080fd5b506105036108133660046133ef565b611ba0565b6105906108263660046130b8565b611bb5565b34801561083757600080fd5b50610503610846366004613092565b611c02565b34801561085757600080fd5b506105906108663660046132c4565b611c17565b34801561087757600080fd5b50610503610886366004613092565b611e1e565b34801561089757600080fd5b506105036108a6366004613092565b611e47565b3480156108b757600080fd5b506105036108c63660046133ef565b611e5c565b3480156108d757600080fd5b50610456611e7b565b3480156108ec57600080fd5b506105036108fb3660046133ef565b611e81565b34801561090c57600080fd5b5061050361091b3660046133ef565b611e96565b34801561092c57600080fd5b5061059061093b366004613092565b611eab565b34801561094c57600080fd5b5061059061095b36600461340d565b611f10565b34801561096c57600080fd5b5061059061097b366004613092565b611f5d565b34801561098c57600080fd5b5061059061099b366004613092565b611fc2565b3480156109ac57600080fd5b506104566109bb3660046133ef565b612027565b3480156109cc57600080fd5b506109e06109db366004613092565b61203c565b60405161046397969594939291906137d7565b3480156109ff57600080fd5b506104566123ed565b348015610a1457600080fd5b50610a1d6123f3565b60405161046391906137a0565b348015610a3657600080fd5b50610503610a45366004613092565b612455565b348015610a5657600080fd5b506104d6610a653660046133ef565b6124a0565b348015610a7657600080fd5b50610a8a610a853660046133ef565b6124bb565b6040516104639493929190613916565b348015610aa657600080fd5b50610503610ab5366004613092565b6125f9565b348015610ac657600080fd5b506104d6610ad53660046133ef565b612622565b348015610ae657600080fd5b50610503610af53660046133ef565b61262f565b348015610b0657600080fd5b50610a1d61264e565b348015610b1b57600080fd5b50610605610b2a3660046133ef565b6126ae565b348015610b3b57600080fd5b50610590610b4a3660046133ef565b61271c565b348015610b5b57600080fd5b50610503610b6a366004613092565b612759565b348015610b7b57600080fd5b5061045661276e565b348015610b9057600080fd5b50610590610b9f3660046130f2565b612774565b348015610bb057600080fd5b50610bc4610bbf3660046133ef565b61285b565b6040516104639493929190613638565b348015610be057600080fd5b50610bf4610bef366004613092565b61289d565b604051610463989796959493929190613700565b348015610c1457600080fd5b50610456610c233660046133ef565b612c29565b348015610c3457600080fd5b50610590610c433660046130b8565b612c3e565b348015610c5457600080fd5b50610c68610c633660046133ef565b612d53565b60405161046394939291906138e1565b348015610c8457600080fd5b50610503610c93366004613092565b612d87565b348015610ca457600080fd5b50610456612d9c565b348015610cb957600080fd5b50610456612da2565b348015610cce57600080fd5b50610590610cdd3660046131c6565b612da8565b6000818152602081905260409020600501545b919050565b6000602081815291815260409081902080546001808301546002808501805487519481161561010002600019011691909104601f81018890048802840188019096528583529295909491929190830182828015610d985780601f10610d6d57610100808354040283529160200191610d98565b820191906000526020600020905b815481529060010190602001808311610d7b57829003601f168201915b5050505060038301805460408051602060026001851615610100026000190190941693909304601f8101849004840282018401909252818152949594935090830182828015610e285780601f10610dfd57610100808354040283529160200191610e28565b820191906000526020600020905b815481529060010190602001808311610e0b57829003601f168201915b505050600484015460058501546006860154600787018054604080516020601f60026000196101006001881615020190951694909404938401819004810282018101909252828152989995989497509295509091830182828015610ecd5780601f10610ea257610100808354040283529160200191610ecd565b820191906000526020600020905b815481529060010190602001808311610eb057829003601f168201915b5050505060088301805460408051602060026001851615610100026000190190941693909304601f8101849004840282018401909252818152949594935090830182828015610f5d5780601f10610f3257610100808354040283529160200191610f5d565b820191906000526020600020905b815481529060010190602001808311610f4057829003601f168201915b5050505050905089565b60165481565b60128181548110610f7a57fe5b600091825260209091200154600160a060020a0316905081565b6000818152600c602052604081205460ff1615610cf557506001610cf5565b6000818152600f602052604081205460ff1615610cf557506001610cf5565b6000908152600d6020526040902054600160a060020a031690565b60106020526000908152604090205460ff1681565b3360009081526005602052604090205460ff168015611037575033600081815260036020526040902054600160a060020a0316145b61104057600080fd5b336000908152600360209081526040909120875161106692600190920191890190612f8a565b5033600090815260036020818152604090922060028101889055865161109493919092019190870190612f8a565b5033600090815260036020908152604090912084516110bb92600490920191860190612f8a565b5033600090815260036020908152604090912083516110e292600790920191850190612f8a565b50336000908152600360209081526040909120825161110992600590920191840190612f8a565b50505050505050565b601154600090600160a060020a038381169116141561113357506001610cf5565b506000610cf5565b6002602081815260009283526040928390208054600180830180548751601f60001994831615610100029490940190911696909604918201859004850286018501909652808552600160a060020a03909116949193928301828280156111e25780601f106111b7576101008083540402835291602001916111e2565b820191906000526020600020905b8154815290600101906020018083116111c557829003601f168201915b505050506002838101546003850180546040805160206001841615610100026000190190931695909504601f81018390048302860183019091528085529596929592945090919083018282801561127a5780601f1061124f5761010080835404028352916020019161127a565b820191906000526020600020905b81548152906001019060200180831161125d57829003601f168201915b5050505060048301805460408051602060026001851615610100026000190190941693909304601f810184900484028201840190925281815294959493509083018282801561130a5780601f106112df5761010080835404028352916020019161130a565b820191906000526020600020905b8154815290600101906020018083116112ed57829003601f168201915b5050505060058301805460408051602060026001851615610100026000190190941693909304601f810184900484028201840190925281815294959493509083018282801561139a5780601f1061136f5761010080835404028352916020019161139a565b820191906000526020600020905b81548152906001019060200180831161137d57829003601f168201915b5050505060068301805460408051602060026001851615610100026000190190941693909304601f810184900484028201840190925281815294959493509083018282801561142a5780601f106113ff5761010080835404028352916020019161142a565b820191906000526020600020905b81548152906001019060200180831161140d57829003601f168201915b5050505050905087565b6000818152602081815260409182902060070180548351601f60026000196101006001861615020190931692909204918201849004840281018401909452808452606093928301828280156114ca5780601f1061149f576101008083540402835291602001916114ca565b820191906000526020600020905b8154815290600101906020018083116114ad57829003601f168201915b50505050509050919050565b6018545b90565b601154600160a060020a031681565b60155481565b60076020526000908152604090205460ff1681565b60165490565b600a6020526000908152604090205460ff1681565b61152b33611112565b61153457600080fd5b6000908152600c60205260409020805460ff19166001179055565b6000818152602081815260409182902060080180548351601f60026000196101006001861615020190931692909204918201849004840281018401909452808452606093928301828280156114ca5780601f1061149f576101008083540402835291602001916114ca565b600160a060020a03811660009081526006602052604081205460ff1615610cf557506001610cf5565b6000818152602081815260409182902060030180548351601f60026000196101006001861615020190931692909204918201849004840281018401909452808452606093928301828280156114ca5780601f1061149f576101008083540402835291602001916114ca565b600160a060020a03811660009081526009602052604081205460ff168061168d5750600160a060020a0382166000908152600b602052604090205460ff165b15610cf557506001610cf5565b600160a060020a0381166000908152600260208181526040808420808401546001808301805485519281161561010002600019011696909604601f81018690048602820186019094528381526060969587958695869586959394600382019360048301936005840193600601929188919083018282801561175c5780601f106117315761010080835404028352916020019161175c565b820191906000526020600020905b81548152906001019060200180831161173f57829003601f168201915b5050875460408051602060026001851615610100026000190190941693909304601f8101849004840282018401909252818152959b50899450925084019050828280156117ea5780601f106117bf576101008083540402835291602001916117ea565b820191906000526020600020905b8154815290600101906020018083116117cd57829003601f168201915b5050865460408051602060026001851615610100026000190190941693909304601f8101849004840282018401909252818152959950889450925084019050828280156118785780601f1061184d57610100808354040283529160200191611878565b820191906000526020600020905b81548152906001019060200180831161185b57829003601f168201915b5050855460408051602060026001851615610100026000190190941693909304601f8101849004840282018401909252818152959850879450925084019050828280156119065780601f106118db57610100808354040283529160200191611906565b820191906000526020600020905b8154815290600101906020018083116118e957829003601f168201915b5050845460408051602060026001851615610100026000190190941693909304601f8101849004840282018401909252818152959750869450925084019050828280156119945780601f1061196957610100808354040283529160200191611994565b820191906000526020600020905b81548152906001019060200180831161197757829003601f168201915b5050505050905095509550955095509550955091939550919395565b60086020526000908152604090205460ff1681565b6119ce33611112565b6119d757600080fd5b600160a060020a0381166000908152600a602052604090819020805460ff19166001179055517f6a6455914f452787eb3985452aceedc1000fb545e394eb3b370e3d08958e0a5b90611a2a90839061361c565b60405180910390a150565b60009081526020819052604090206001015490565b611a53336115ba565b8015611a635750611a6333612455565b611a6c57600080fd5b60148054600190810191829055604080516101208101825283815260208082018d81528284018d8152606084018d9052608084018c905260a084018b905260c084018a905260e0840189905261010084018890526000968752868352939095208251815594519385019390935590518051919392611af292600285019290910190612f8a565b5060608201518051611b0e916003840191602090910190612f8a565b506080820151600482015560a0820151600582015560c0820151600682015560e08201518051611b48916007840191602090910190612f8a565b506101008201518051611b65916008840191602090910190612f8a565b50506014546000908152600d60205260409020805473ffffffffffffffffffffffffffffffffffffffff191633179055505050505050505050565b600f6020526000908152604090205460ff1681565b600081815260106020526040808220805460ff1916600117905551600160a060020a038416913480156108fc02929091818181858888f19350505050158015611bfd57600080fd5b505050565b600b6020526000908152604090205460ff1681565b3360009081526005602052604090205460ff1615611c3457600080fd5b3360008181526005602090815260408083208054600160ff1991821681179092556007845282852080549091168217905560178054820190558151610100810183528581528084018d81528184018d9052606082018c9052608082018b905260a082018a905260c0820189905260e0820188905295855260038452919093208151815473ffffffffffffffffffffffffffffffffffffffff1916600160a060020a0390911617815593518051919493611cf39390850192910190612f8a565b506040820151600282015560608201518051611d19916003840191602090910190612f8a565b5060808201518051611d35916004840191602090910190612f8a565b5060a08201518051611d51916005840191602090910190612f8a565b5060c08201518051611d6d916006840191602090910190612f8a565b5060e08201518051611d89916007840191602090910190612f8a565b5050601380546001810182556000919091527f66de8ffda797e3de9c05e8fc57b3bf0ec28a930d40b0d285d93c06501cf6a09001805473ffffffffffffffffffffffffffffffffffffffff1916339081179091556040517f478f5152d8fc568db3f8de9fb402fd9d98a1a7541ecfe434e59cf574fbfc55249250611e0d919061362a565b60405180910390a150505050505050565b600160a060020a03811660009081526007602052604081205460ff1615610cf557506001610cf5565b60096020526000908152604090205460ff1681565b6000818152600e602052604081205460ff1615610cf557506001610cf5565b60175490565b600e6020526000908152604090205460ff1681565b600c6020526000908152604090205460ff1681565b611eb433611112565b611ebd57600080fd5b600160a060020a0381166000908152600b602052604090819020805460ff19166001179055517faf77f8960cf590e245ec8b6d41c193a5dcacad8986ae4eb57ac9e5be7b6af03190611a2a90839061361c565b611f1933611112565b611f2257600080fd5b6000918252600d6020526040909120805473ffffffffffffffffffffffffffffffffffffffff1916600160a060020a03909216919091179055565b611f6633611112565b611f6f57600080fd5b600160a060020a03811660009081526009602052604090819020805460ff19166001179055517faf77f8960cf590e245ec8b6d41c193a5dcacad8986ae4eb57ac9e5be7b6af03190611a2a90839061361c565b611fcb33611112565b611fd457600080fd5b600160a060020a03811660009081526008602052604090819020805460ff19166001179055517f6a6455914f452787eb3985452aceedc1000fb545e394eb3b370e3d08958e0a5b90611a2a90839061361c565b60009081526020819052604090206006015490565b600160a060020a03811660009081526003602081815260408084206002808201546001808401805486519281161561010002600019011693909304601f810187900487028201870190955284815260609788978897889788979396889690959385019460058101946006820194600783019460049093019289918301828280156121075780601f106120dc57610100808354040283529160200191612107565b820191906000526020600020905b8154815290600101906020018083116120ea57829003601f168201915b5050895460408051602060026001851615610100026000190190941693909304601f8101849004840282018401909252818152959c508b9450925084019050828280156121955780601f1061216a57610100808354040283529160200191612195565b820191906000526020600020905b81548152906001019060200180831161217857829003601f168201915b5050885460408051602060026001851615610100026000190190941693909304601f8101849004840282018401909252818152959b508a9450925084019050828280156122235780601f106121f857610100808354040283529160200191612223565b820191906000526020600020905b81548152906001019060200180831161220657829003601f168201915b5050875460408051602060026001851615610100026000190190941693909304601f8101849004840282018401909252818152959a50899450925084019050828280156122b15780601f10612286576101008083540402835291602001916122b1565b820191906000526020600020905b81548152906001019060200180831161229457829003601f168201915b5050865460408051602060026001851615610100026000190190941693909304601f81018490048402820184019092528181529599508894509250840190508282801561233f5780601f106123145761010080835404028352916020019161233f565b820191906000526020600020905b81548152906001019060200180831161232257829003601f168201915b5050845460408051602060026001851615610100026000190190941693909304601f8101849004840282018401909252818152959850869450925084019050828280156123cd5780601f106123a2576101008083540402835291602001916123cd565b820191906000526020600020905b8154815290600101906020018083116123b057829003601f168201915b505050505090509650965096509650965096509650919395979092949650565b60145490565b6060601380548060200260200160405190810160405280929190818152602001828054801561244b57602002820191906000526020600020905b8154600160a060020a0316815260019091019060200180831161242d575b5050505050905090565b600160a060020a03811660009081526008602052604081205460ff168061168d5750600160a060020a0382166000908152600a602052604090205460ff1615610cf557506001610cf5565b600d60205260009081526040902054600160a060020a031681565b600160208181526000928352604092839020805481840180548651600296821615610100026000190190911695909504601f810185900485028601850190965285855290949193929091908301828280156125575780601f1061252c57610100808354040283529160200191612557565b820191906000526020600020905b81548152906001019060200180831161253a57829003601f168201915b505050506002838101546003850180546040805160206001841615610100026000190190931695909504601f8101839004830286018301909152808552959692959294509091908301828280156125ef5780601f106125c4576101008083540402835291602001916125ef565b820191906000526020600020905b8154815290600101906020018083116125d257829003601f168201915b5050505050905084565b600160a060020a03811660009081526005602052604081205460ff1615610cf557506001610cf5565b60138181548110610f7a57fe5b60008181526010602052604081205460ff1615610cf557506001610cf5565b6060601280548060200260200160405190810160405280929190818152602001828054801561244b57602002820191906000526020600020908154600160a060020a0316815260019091019060200180831161242d575050505050905090565b600081815260208181526040918290206002908101805484516001821615610100026000190190911692909204601f810184900484028301840190945283825260609391929091908301828280156114ca5780601f1061149f576101008083540402835291602001916114ca565b612725336115ba565b8015612735575061273533612455565b61273e57600080fd5b6000908152600e60205260409020805460ff19166001179055565b60066020526000908152604090205460ff1681565b60145481565b3360009081526005602052604090205460ff1680156127a9575033600081815260026020526040902054600160a060020a0316145b6127b257600080fd5b33600090815260026020908152604090912086516127d892600190920191880190612f8a565b50336000908152600260208181526040909220908101869055845161280592600390920191860190612f8a565b50336000908152600260209081526040909120835161282c92600490920191850190612f8a565b50336000908152600260209081526040909120825161285392600590920191840190612f8a565b505050505050565b600090815260046020908152604080832060018101546002820154600390920154600e9094529190932054600160a060020a0391821694919093169260ff1690565b6003602090815260009182526040918290208054600180830180548651600261010094831615949094026000190190911692909204601f8101869004860283018601909652858252600160a060020a039092169492939092908301828280156129475780601f1061291c57610100808354040283529160200191612947565b820191906000526020600020905b81548152906001019060200180831161292a57829003601f168201915b505050506002838101546003850180546040805160206001841615610100026000190190931695909504601f8101839004830286018301909152808552959692959294509091908301828280156129df5780601f106129b4576101008083540402835291602001916129df565b820191906000526020600020905b8154815290600101906020018083116129c257829003601f168201915b5050505060048301805460408051602060026001851615610100026000190190941693909304601f8101849004840282018401909252818152949594935090830182828015612a6f5780601f10612a4457610100808354040283529160200191612a6f565b820191906000526020600020905b815481529060010190602001808311612a5257829003601f168201915b5050505060058301805460408051602060026001851615610100026000190190941693909304601f8101849004840282018401909252818152949594935090830182828015612aff5780601f10612ad457610100808354040283529160200191612aff565b820191906000526020600020905b815481529060010190602001808311612ae257829003601f168201915b5050505060068301805460408051602060026001851615610100026000190190941693909304601f8101849004840282018401909252818152949594935090830182828015612b8f5780601f10612b6457610100808354040283529160200191612b8f565b820191906000526020600020905b815481529060010190602001808311612b7257829003601f168201915b5050505060078301805460408051602060026001851615610100026000190190941693909304601f8101849004840282018401909252818152949594935090830182828015612c1f5780601f10612bf457610100808354040283529160200191612c1f565b820191906000526020600020905b815481529060010190602001808311612c0257829003601f168201915b5050505050905088565b60009081526020819052604090206004015490565b612c4733611e1e565b8015612c575750612c5733612455565b612c6057600080fd5b60188054600190810180835560408051608081018252828152600160a060020a03808816602080840191825233848601908152606085018a8152600097885260048352868820955186559251858901805491861673ffffffffffffffffffffffffffffffffffffffff199283161790559051600286018054919095169116179092555160039092019190915584548352600e8152818320805460ff1990811690915594548352600f9052908190208054909316909117909155517f5e05434b1b88d44ffdd091e9008d774acde995e57ab841ab1a488f974a6af26d90612d4790849061361c565b60405180910390a15050565b60046020526000908152604090208054600182015460028301546003909301549192600160a060020a039182169291169084565b60056020526000908152604090205460ff1681565b60185481565b60175481565b3360009081526005602052604090205460ff1615612dc557600080fd5b3360008181526005602090815260408083208054600160ff199182168117909255600684528285208054909116821790556016805482019055815160e0810183528581528084018c81528184018c9052606082018b9052608082018a905260a0820189905260c0820188905295855260028452919093208151815473ffffffffffffffffffffffffffffffffffffffff1916600160a060020a0390911617815593518051919493612e7c9390850192910190612f8a565b506040820151600282015560608201518051612ea2916003840191602090910190612f8a565b5060808201518051612ebe916004840191602090910190612f8a565b5060a08201518051612eda916005840191602090910190612f8a565b5060c08201518051612ef6916006840191602090910190612f8a565b5050601280546001810182556000919091527fbb8a6a4669ba250d26cd7a459eca9d215f8307e33aebe50379bc5a3617ec344401805473ffffffffffffffffffffffffffffffffffffffff1916339081179091556040517f478f5152d8fc568db3f8de9fb402fd9d98a1a7541ecfe434e59cf574fbfc55249250612f7a919061362a565b60405180910390a1505050505050565b828054600181600116156101000203166002900490600052602060002090601f016020900481019282601f10612fcb57805160ff1916838001178555612ff8565b82800160010185558215612ff8579182015b82811115612ff8578251825591602001919060010190612fdd565b50613004929150613008565b5090565b6114da91905b80821115613004576000815560010161300e565b803561302d81613ad7565b92915050565b600082601f83011261304457600080fd5b813561305761305282613a29565b613a02565b9150808252602083016020830185838301111561307357600080fd5b61307e838284613a91565b50505092915050565b803561302d81613aee565b6000602082840312156130a457600080fd5b60006130b08484613022565b949350505050565b600080604083850312156130cb57600080fd5b60006130d78585613022565b92505060206130e885828601613087565b9150509250929050565b600080600080600060a0868803121561310a57600080fd5b853567ffffffffffffffff81111561312157600080fd5b61312d88828901613033565b955050602061313e88828901613087565b945050604086013567ffffffffffffffff81111561315b57600080fd5b61316788828901613033565b935050606086013567ffffffffffffffff81111561318457600080fd5b61319088828901613033565b925050608086013567ffffffffffffffff8111156131ad57600080fd5b6131b988828901613033565b9150509295509295909350565b60008060008060008060c087890312156131df57600080fd5b863567ffffffffffffffff8111156131f657600080fd5b61320289828a01613033565b965050602061321389828a01613087565b955050604087013567ffffffffffffffff81111561323057600080fd5b61323c89828a01613033565b945050606087013567ffffffffffffffff81111561325957600080fd5b61326589828a01613033565b935050608087013567ffffffffffffffff81111561328257600080fd5b61328e89828a01613033565b92505060a087013567ffffffffffffffff8111156132ab57600080fd5b6132b789828a01613033565b9150509295509295509295565b600080600080600080600060e0888a0312156132df57600080fd5b873567ffffffffffffffff8111156132f657600080fd5b6133028a828b01613033565b97505060206133138a828b01613087565b965050604088013567ffffffffffffffff81111561333057600080fd5b61333c8a828b01613033565b955050606088013567ffffffffffffffff81111561335957600080fd5b6133658a828b01613033565b945050608088013567ffffffffffffffff81111561338257600080fd5b61338e8a828b01613033565b93505060a088013567ffffffffffffffff8111156133ab57600080fd5b6133b78a828b01613033565b92505060c088013567ffffffffffffffff8111156133d457600080fd5b6133e08a828b01613033565b91505092959891949750929550565b60006020828403121561340157600080fd5b60006130b08484613087565b6000806040838503121561342057600080fd5b600061342c8585613087565b92505060206130e885828601613022565b600080600080600080600080610100898b03121561345a57600080fd5b60006134668b8b613087565b985050602089013567ffffffffffffffff81111561348357600080fd5b61348f8b828c01613033565b975050604089013567ffffffffffffffff8111156134ac57600080fd5b6134b88b828c01613033565b96505060606134c98b828c01613087565b95505060806134da8b828c01613087565b94505060a06134eb8b828c01613087565b93505060c089013567ffffffffffffffff81111561350857600080fd5b6135148b828c01613033565b92505060e089013567ffffffffffffffff81111561353157600080fd5b61353d8b828c01613033565b9150509295985092959890939650565b60006135598383613570565b505060200190565b61356a81613a80565b82525050565b61356a81613a64565b600061358482613a57565b61358e8185613a5b565b935061359983613a51565b8060005b838110156135c75781516135b1888261354d565b97506135bc83613a51565b92505060010161359d565b509495945050505050565b61356a81613a6f565b60006135e682613a57565b6135f08185613a5b565b9350613600818560208601613a9d565b61360981613acd565b9093019392505050565b61356a816114da565b6020810161302d8284613570565b6020810161302d8284613561565b608081016136468287613570565b6136536020830186613570565b6136606040830185613613565b61366d60608301846135d2565b95945050505050565b60e08101613684828a613570565b818103602083015261369681896135db565b90506136a56040830188613613565b81810360608301526136b781876135db565b905081810360808301526136cb81866135db565b905081810360a08301526136df81856135db565b905081810360c08301526136f381846135db565b9998505050505050505050565b610100810161370f828b613570565b8181036020830152613721818a6135db565b90506137306040830189613613565b818103606083015261374281886135db565b9050818103608083015261375681876135db565b905081810360a083015261376a81866135db565b905081810360c083015261377e81856135db565b905081810360e083015261379281846135db565b9a9950505050505050505050565b602080825281016137b18184613579565b9392505050565b6020810161302d82846135d2565b602080825281016137b181846135db565b60e080825281016137e8818a6135db565b905081810360208301526137fc81896135db565b9050818103604083015261381081886135db565b9050818103606083015261382481876135db565b9050818103608083015261383881866135db565b905061384760a0830185613613565b81810360c08301526136f381846135db565b60c0808252810161386a81896135db565b90506138796020830188613613565b818103604083015261388b81876135db565b9050818103606083015261389f81866135db565b905081810360808301526138b381856135db565b905081810360a08301526138c781846135db565b98975050505050505050565b6020810161302d8284613613565b608081016138ef8287613613565b6138fc6020830186613570565b6139096040830185613570565b61366d6060830184613613565b608081016139248287613613565b818103602083015261393681866135db565b90506139456040830185613613565b818103606083015261395781846135db565b9695505050505050565b6101208101613970828c613613565b61397d602083018b613613565b818103604083015261398f818a6135db565b905081810360608301526139a381896135db565b90506139b26080830188613613565b6139bf60a0830187613613565b6139cc60c0830186613613565b81810360e08301526139de81856135db565b90508181036101008301526139f381846135db565b9b9a5050505050505050505050565b60405181810167ffffffffffffffff81118282101715613a2157600080fd5b604052919050565b600067ffffffffffffffff821115613a4057600080fd5b506020601f91909101601f19160190565b60200190565b5190565b90815260200190565b600061302d82613a74565b151590565b600160a060020a031690565b600061302d82600061302d82613a64565b82818337506000910152565b60005b83811015613ab8578181015183820152602001613aa0565b83811115613ac7576000848401525b50505050565b601f01601f191690565b613ae081613a64565b8114613aeb57600080fd5b50565b613ae0816114da56fea365627a7a72315820de04c30290a408e333f3ae345d37d70ef5686c0f2bdd1adfbea754e486a65f906c6578706572696d656e74616cf564736f6c63430005100040",
  "source": "pragma solidity >= 0.5.2;\npragma experimental ABIEncoderV2;\ncontract Land { // RFP\n    struct RfpReg { // RfpReg\n        uint id;\n        uint area;\n        string city;\n        string state;\n        uint rfpPrice;\n        uint rfpssId;\n        uint physicalSurveyNumber;\n        string ipfsHash;\n        string document;\n    }\n\n    struct DevAgency{ //DevAgency\n        address id;\n        string name;\n        uint age;\n        string city;\n        string aadharNumber;\n        string panNumber;\n        string document;\n        string email;\n    }\n\n    struct Shq{ // Shq\n        address id;\n        string name;\n        uint age;\n        string aadharNumber;\n        string panNumber;\n        string rfpssOwned;\n        string document;\n    }\n\n    struct ContractAdmin { // Admin\n        uint id;\n        string name;\n        uint age;\n        string designation;\n    }\n\n    struct BidRequest{ //BidRequest\n        uint reqId;\n        address shqqId;\n        address agencyyId;\n        uint rfpssId;\n        // bool requestStatus;\n        // bool requested;\n    }\n\n    //key value pairs\n    mapping(uint => RfpReg) public rfps;\n    mapping(uint => ContractAdmin) public AdminMapping;\n    mapping(address => Shq) public ShqMapping;\n    mapping(address => DevAgency) public AgencyMapping;\n    mapping(uint => BidRequest) public BidsMapping;\n\n    mapping(address => bool) public RegisteredAddressMapping;\n    mapping(address => bool) public RegisteredShqMapping;\n    mapping(address => bool) public RegisteredAgencyMapping;\n    mapping(address => bool) public ShqVerification;\n    mapping(address => bool) public ShqRejection;\n    mapping(address => bool) public AgencyVerification;\n    mapping(address => bool) public AgencyRejection;\n    mapping(uint => bool) public RfpVerification;\n    mapping(uint => address) public RfpOwner;\n    mapping(uint => bool) public RequestStatus;\n    mapping(uint => bool) public RequestedRfp;\n    mapping(uint => bool) public PaymentReceived;\n\n    address public RfpAdmin;\n    address[] public shqList;\n    address[] public agencyList;\n\n    uint public rfpCount;\n    uint public adminCount;\n    uint public agencyCount;\n    uint public shqCount;\n    uint public requestsCount;\n\n    event Registration(address _registrationId);\n    event AddingRfp(uint indexed _landId);\n    event Rfprequested(address _sellerId);\n    event requestApproved(address _buyerId);\n    event Verified(address _id);\n    event Rejected(address _id);\n\n    constructor() public{\n        RfpAdmin = msg.sender ;\n        addAdmin(\"Inspector 1\", 45, \"Tehsil Manager\");\n    }\n\n    // addAdmin\n    function addAdmin(string memory _name, uint _age, string memory _designation) private {\n        adminCount++;\n        AdminMapping[adminCount] = ContractAdmin(adminCount, _name, _age, _designation);\n    }\n\n    // getRfpCount\n    function getRfpCount() public view returns (uint) {\n        return rfpCount;\n    }\n\n    // getAgencyCount\n    function getAgencyCount() public view returns (uint) {\n        return shqCount;\n    }\n\n    // getShqCount\n    function getShqCount() public view returns (uint) {\n        return agencyCount;\n    }\n\n    // getBidCount\n    function getBidCount() public view returns (uint) {\n        return requestsCount;\n    }\n\n    function getArea(uint i) public view returns (uint) {\n        return rfps[i].area;\n    }\n    function getCity(uint i) public view returns (string memory) {\n        return rfps[i].city;\n    }\n     function getState(uint i) public view returns (string memory) {\n        return rfps[i].state;\n    }\n    // function getStatus(uint i) public view returns (bool) {\n    //     return rfps[i].verificationStatus;\n    // }\n    function getPrice(uint i) public view returns (uint) {\n        return rfps[i].rfpPrice;\n    }\n    function getPID(uint i) public view returns (uint) {\n        return rfps[i].rfpssId;\n    }\n    function getSurveyNumber(uint i) public view returns (uint) {\n        return rfps[i].physicalSurveyNumber;\n    }\n    function getImage(uint i) public view returns (string memory) {\n        return rfps[i].ipfsHash;\n    }\n    function getDocument(uint i) public view returns (string memory) {\n        return rfps[i].document;\n    }\n    \n    function getLandOwner(uint id) public view returns (address) {\n        return RfpOwner[id];\n    }\n\n    // verifyShq\n    function verifyShq(address _sellerId) public{\n        require(isAdmin(msg.sender));\n\n        ShqVerification[_sellerId] = true;\n        emit Verified(_sellerId);\n    }\n    \n    // rejectShq \n    function rejectShq(address _sellerId) public{\n        require(isAdmin(msg.sender));\n\n        ShqRejection[_sellerId] = true;\n        emit Rejected(_sellerId);\n    }\n\n    // verifyAgency\n    function verifyAgency(address _buyerId) public{\n        require(isAdmin(msg.sender));\n\n        AgencyVerification[_buyerId] = true;\n        emit Verified(_buyerId);\n    }\n    // rejectAgency\n    function rejectAgency(address _buyerId) public{\n        require(isAdmin(msg.sender));\n\n        AgencyRejection[_buyerId] = true;\n        emit Rejected(_buyerId);\n    }\n    \n    // verifyRfp\n    function verifyRfp(uint _landId) public{\n        require(isAdmin(msg.sender));\n\n        RfpVerification[_landId] = true;\n    }\n\n    // isRfpVerified\n    function isRfpVerified(uint _id) public view returns (bool) {\n        if(RfpVerification[_id]){\n            return true;\n        }\n    }\n\n    \n    function isVerified(address _id) public view returns (bool) {\n        if(ShqVerification[_id] || AgencyVerification[_id]){\n            return true;\n        }\n    }\n\n    function isRejected(address _id) public view returns (bool) {\n        if(ShqRejection[_id] || AgencyRejection[_id]){\n            return true;\n        }\n    }\n\n    // isAgency\n    function isAgency(address _id) public view returns (bool) {\n        if(RegisteredShqMapping[_id]){\n            return true;\n        }\n    }\n\n    // isAdmin\n    function isAdmin(address _id) public view returns (bool) {\n        if(RfpAdmin == _id){\n            return true;\n        }else{\n            return false;\n        }\n    }\n\n    // isShq\n    function isShq(address _id) public view returns (bool) {\n        if(RegisteredAgencyMapping[_id]){\n            return true;\n        }\n    }\n\n    function isRegistered(address _id) public view returns (bool) {\n        if(RegisteredAddressMapping[_id]){\n            return true;\n        }\n    }\n\n    // addRfp\n    function addRfp(uint _area, string memory _city,string memory _state, uint rfpPrice, uint _propertyPID,uint _surveyNum,string memory _ipfsHash, string memory _document) public {\n        require((isAgency(msg.sender)) && (isVerified(msg.sender)));\n        rfpCount++;\n        rfps[rfpCount] = RfpReg(rfpCount, _area, _city, _state, rfpPrice,_propertyPID, _surveyNum, _ipfsHash, _document);\n        RfpOwner[rfpCount] = msg.sender;\n        // emit AddingRfp(rfpCount);\n    }\n\n    //registration of seller\n    // registerShq\n    function registerShq(string memory _name, uint _age, string memory _aadharNumber, string memory _panNumber, string memory _landsOwned, string memory _document) public {\n        //require that Shq is not already registered\n        require(!RegisteredAddressMapping[msg.sender]);\n\n        RegisteredAddressMapping[msg.sender] = true;\n        RegisteredShqMapping[msg.sender] = true ;\n        agencyCount++;\n        ShqMapping[msg.sender] = Shq(msg.sender, _name, _age, _aadharNumber,_panNumber, _landsOwned, _document);\n        shqList.push(msg.sender);\n        emit Registration(msg.sender);\n    }\n\n    // updateShq\n    function updateShq(string memory _name, uint _age, string memory _aadharNumber, string memory _panNumber, string memory _landsOwned) public {\n        //require that Shq is already registered\n        require(RegisteredAddressMapping[msg.sender] && (ShqMapping[msg.sender].id == msg.sender));\n\n        ShqMapping[msg.sender].name = _name;\n        ShqMapping[msg.sender].age = _age;\n        ShqMapping[msg.sender].aadharNumber = _aadharNumber;\n        ShqMapping[msg.sender].panNumber = _panNumber;\n        ShqMapping[msg.sender].rfpssOwned = _landsOwned;\n\n    }\n    // getShq\n    function getShq() public view returns( address [] memory ){\n        return(shqList);\n    }\n\n    // getShqDetails\n    function getShqDetails(address i) public view returns (string memory, uint, string memory, string memory, string memory, string memory) {\n        return (ShqMapping[i].name, ShqMapping[i].age, ShqMapping[i].aadharNumber, ShqMapping[i].panNumber, ShqMapping[i].rfpssOwned, ShqMapping[i].document);\n    }\n\n    // registerAgency\n    function registerAgency(string memory _name, uint _age, string memory _city, string memory _aadharNumber, string memory _panNumber, string memory _document, string memory _email) public {\n        //require that DevAgency is not already registered\n        require(!RegisteredAddressMapping[msg.sender]);\n\n        RegisteredAddressMapping[msg.sender] = true;\n        RegisteredAgencyMapping[msg.sender] = true ;\n        shqCount++;\n        AgencyMapping[msg.sender] = DevAgency(msg.sender, _name, _age, _city, _aadharNumber, _panNumber, _document, _email);\n        agencyList.push(msg.sender);\n\n        emit Registration(msg.sender);\n    }\n\n    // updateAgency\n    function updateAgency(string memory _name,uint _age, string memory _city,string memory _aadharNumber, string memory _email, string memory _panNumber) public {\n        //require that DevAgency is already registered\n        require(RegisteredAddressMapping[msg.sender] && (AgencyMapping[msg.sender].id == msg.sender));\n\n        AgencyMapping[msg.sender].name = _name;\n        AgencyMapping[msg.sender].age = _age;\n        AgencyMapping[msg.sender].city = _city;\n        AgencyMapping[msg.sender].aadharNumber = _aadharNumber;\n        AgencyMapping[msg.sender].email = _email;\n        AgencyMapping[msg.sender].panNumber = _panNumber;\n        \n    }\n\n    // getAgency\n    function getAgency() public view returns( address [] memory ){\n        return(agencyList);\n    }\n\n    // getAgencyDetails\n    function getAgencyDetails(address i) public view returns ( string memory,string memory, string memory, string memory, string memory, uint, string memory) {\n        return (AgencyMapping[i].name,AgencyMapping[i].city , AgencyMapping[i].panNumber, AgencyMapping[i].document, AgencyMapping[i].email, AgencyMapping[i].age, AgencyMapping[i].aadharNumber);\n    }\n\n    // requestBid\n    function requestBid(address _sellerId, uint _landId) public{\n        require(isShq(msg.sender) && isVerified(msg.sender));\n        \n        requestsCount++;\n        BidsMapping[requestsCount] = BidRequest(requestsCount, _sellerId, msg.sender, _landId);\n        RequestStatus[requestsCount] = false;\n        RequestedRfp[requestsCount] = true;\n\n        emit Rfprequested(_sellerId);\n    }\n\n    // getBidDetails\n    function getBidDetails (uint i) public view returns (address, address, uint, bool) {\n        return(BidsMapping[i].shqqId, BidsMapping[i].agencyyId, BidsMapping[i].rfpssId, RequestStatus[i]);\n    }\n\n    function isRequested(uint _id) public view returns (bool) {\n        if(RequestedRfp[_id]){\n            return true;\n        }\n    }\n\n    function isApproved(uint _id) public view returns (bool) {\n        if(RequestStatus[_id]){\n            return true;\n        }\n    }\n\n    function approveRequest(uint _reqId) public {\n        require((isAgency(msg.sender)) && (isVerified(msg.sender)));\n       \n        RequestStatus[_reqId] = true;\n\n    }\n\n    function RfpOwnershipTransfer(uint _landId, address _newOwner) public{\n        require(isAdmin(msg.sender));\n\n        RfpOwner[_landId] = _newOwner;\n    }\n\n    function isPaid(uint _landId) public view returns (bool) {\n        if(PaymentReceived[_landId]){\n            return true;\n        }\n    }\n\n    function payment(address payable _receiver, uint _landId) public payable {\n        PaymentReceived[_landId] = true;\n        _receiver.transfer(msg.value);\n    }\n}\n",
  "sourcePath": "F:\\Code\\Blockchain-BTP\\contracts\\Land.sol",
  "compiler": {
    "name": "solc",
    "version": "0.5.16+commit.9c3226ce.Emscripten.clang"
  },
  "schemaVersion": "3.4.16",
  "updatedAt": "2024-01-14T09:48:10.225Z",
  "networkType": "ethereum",
  "devdoc": {
    "methods": {}
  },
  "userdoc": {
    "methods": {}
  }
}